{"abi":[{"type":"constructor","inputs":[{"name":"_eventOracle","type":"address","internalType":"address"},{"name":"_callback_sender","type":"address","internalType":"address"}],"stateMutability":"nonpayable"},{"type":"function","name":"accumulatedFees","inputs":[],"outputs":[{"name":"","type":"uint256","internalType":"uint256"}],"stateMutability":"view"},{"type":"function","name":"betters","inputs":[{"name":"","type":"uint256","internalType":"uint256"}],"outputs":[{"name":"","type":"address","internalType":"address"}],"stateMutability":"view"},{"type":"function","name":"calculateMarketOdds","inputs":[{"name":"_marketId","type":"uint256","internalType":"uint256"}],"outputs":[{"name":"","type":"uint256[]","internalType":"uint256[]"}],"stateMutability":"view"},{"type":"function","name":"createMarket","inputs":[{"name":"_eventId","type":"uint256","internalType":"uint256"}],"outputs":[],"stateMutability":"nonpayable"},{"type":"function","name":"eventOracle","inputs":[],"outputs":[{"name":"","type":"address","internalType":"contract EventOracle"}],"stateMutability":"view"},{"type":"function","name":"getBetSlip","inputs":[{"name":"_marketId","type":"uint256","internalType":"uint256"},{"name":"_better","type":"address","internalType":"address"}],"outputs":[{"name":"amount","type":"uint256","internalType":"uint256"},{"name":"outcome","type":"uint256","internalType":"uint256"}],"stateMutability":"view"},{"type":"function","name":"getMarketDetails","inputs":[{"name":"_marketId","type":"uint256","internalType":"uint256"}],"outputs":[{"name":"eventId","type":"uint256","internalType":"uint256"},{"name":"totalBets","type":"uint256","internalType":"uint256"},{"name":"marketSettled","type":"bool","internalType":"bool"},{"name":"outcome","type":"uint256","internalType":"uint256"},{"name":"description","type":"string","internalType":"string"},{"name":"endTime","type":"uint256","internalType":"uint256"},{"name":"eventSettled","type":"bool","internalType":"bool"},{"name":"eventOutcome","type":"uint256","internalType":"uint256"},{"name":"outcomeNames","type":"string[]","internalType":"string[]"}],"stateMutability":"view"},{"type":"function","name":"getMarketOutcomeTotals","inputs":[{"name":"_marketId","type":"uint256","internalType":"uint256"},{"name":"_outcome","type":"uint256","internalType":"uint256"}],"outputs":[{"name":"","type":"uint256","internalType":"uint256"}],"stateMutability":"view"},{"type":"function","name":"getMarketTotalBets","inputs":[{"name":"_marketId","type":"uint256","internalType":"uint256"}],"outputs":[{"name":"","type":"uint256","internalType":"uint256"}],"stateMutability":"view"},{"type":"function","name":"getMarkets","inputs":[{"name":"_settled","type":"bool","internalType":"bool"}],"outputs":[{"name":"marketIds","type":"uint256[]","internalType":"uint256[]"},{"name":"descriptions","type":"string[]","internalType":"string[]"},{"name":"outcomes","type":"string[][]","internalType":"string[][]"},{"name":"totalBets","type":"uint256[]","internalType":"uint256[]"},{"name":"totalUniqueUsers","type":"uint256[]","internalType":"uint256[]"}],"stateMutability":"view"},{"type":"function","name":"getTopBets","inputs":[{"name":"_marketId","type":"uint256","internalType":"uint256"}],"outputs":[{"name":"","type":"tuple[]","internalType":"struct PredictionMarket.BetSlip[]","components":[{"name":"marketId","type":"uint256","internalType":"uint256"},{"name":"better","type":"address","internalType":"address"},{"name":"amount","type":"uint256","internalType":"uint256"},{"name":"outcome","type":"uint256","internalType":"uint256"},{"name":"winningPrize","type":"uint256","internalType":"uint256"},{"name":"settled","type":"bool","internalType":"bool"}]},{"name":"","type":"uint256[]","internalType":"uint256[]"}],"stateMutability":"view"},{"type":"function","name":"getUserBetSlips","inputs":[{"name":"_marketId","type":"uint256","internalType":"uint256"},{"name":"_user","type":"address","internalType":"address"}],"outputs":[{"name":"","type":"tuple[]","internalType":"struct PredictionMarket.BetSlip[]","components":[{"name":"marketId","type":"uint256","internalType":"uint256"},{"name":"better","type":"address","internalType":"address"},{"name":"amount","type":"uint256","internalType":"uint256"},{"name":"outcome","type":"uint256","internalType":"uint256"},{"name":"winningPrize","type":"uint256","internalType":"uint256"},{"name":"settled","type":"bool","internalType":"bool"}]},{"name":"","type":"uint256[]","internalType":"uint256[]"}],"stateMutability":"view"},{"type":"function","name":"getUserRankings","inputs":[],"outputs":[{"name":"","type":"address[]","internalType":"address[]"},{"name":"","type":"uint256[]","internalType":"uint256[]"},{"name":"","type":"uint256[]","internalType":"uint256[]"}],"stateMutability":"view"},{"type":"function","name":"getUserStats","inputs":[{"name":"user","type":"address","internalType":"address"}],"outputs":[{"name":"totalBets","type":"uint256","internalType":"uint256"},{"name":"totalWins","type":"uint256","internalType":"uint256"}],"stateMutability":"view"},{"type":"function","name":"marketCount","inputs":[],"outputs":[{"name":"","type":"uint256","internalType":"uint256"}],"stateMutability":"view"},{"type":"function","name":"marketFee","inputs":[],"outputs":[{"name":"","type":"uint256","internalType":"uint256"}],"stateMutability":"view"},{"type":"function","name":"markets","inputs":[{"name":"","type":"uint256","internalType":"uint256"}],"outputs":[{"name":"eventId","type":"uint256","internalType":"uint256"},{"name":"totalBets","type":"uint256","internalType":"uint256"},{"name":"settled","type":"bool","internalType":"bool"}],"stateMutability":"view"},{"type":"function","name":"owner","inputs":[],"outputs":[{"name":"","type":"address","internalType":"address"}],"stateMutability":"view"},{"type":"function","name":"placeBet","inputs":[{"name":"_marketId","type":"uint256","internalType":"uint256"},{"name":"_outcome","type":"uint256","internalType":"uint256"}],"outputs":[],"stateMutability":"payable"},{"type":"function","name":"renounceOwnership","inputs":[],"outputs":[],"stateMutability":"nonpayable"},{"type":"function","name":"settleMarket","inputs":[{"name":"_marketId","type":"uint256","internalType":"uint256"}],"outputs":[],"stateMutability":"nonpayable"},{"type":"function","name":"totalUserBets","inputs":[{"name":"","type":"address","internalType":"address"}],"outputs":[{"name":"","type":"uint256","internalType":"uint256"}],"stateMutability":"view"},{"type":"function","name":"totalUserPrizes","inputs":[{"name":"","type":"address","internalType":"address"}],"outputs":[{"name":"","type":"uint256","internalType":"uint256"}],"stateMutability":"view"},{"type":"function","name":"transferOwnership","inputs":[{"name":"newOwner","type":"address","internalType":"address"}],"outputs":[],"stateMutability":"nonpayable"},{"type":"function","name":"uniqueBetters","inputs":[{"name":"","type":"address","internalType":"address"}],"outputs":[{"name":"","type":"bool","internalType":"bool"}],"stateMutability":"view"},{"type":"function","name":"withdrawFees","inputs":[],"outputs":[],"stateMutability":"nonpayable"},{"type":"event","name":"BetPlaced","inputs":[{"name":"marketId","type":"uint256","indexed":true,"internalType":"uint256"},{"name":"better","type":"address","indexed":true,"internalType":"address"},{"name":"outcome","type":"uint256","indexed":false,"internalType":"uint256"},{"name":"amount","type":"uint256","indexed":false,"internalType":"uint256"}],"anonymous":false},{"type":"event","name":"FeesWithdrawn","inputs":[{"name":"amount","type":"uint256","indexed":false,"internalType":"uint256"}],"anonymous":false},{"type":"event","name":"MarketCreated","inputs":[{"name":"marketId","type":"uint256","indexed":true,"internalType":"uint256"},{"name":"eventId","type":"uint256","indexed":true,"internalType":"uint256"}],"anonymous":false},{"type":"event","name":"MarketSettled","inputs":[{"name":"marketId","type":"uint256","indexed":true,"internalType":"uint256"},{"name":"outcome","type":"uint256","indexed":false,"internalType":"uint256"}],"anonymous":false},{"type":"event","name":"OwnershipTransferred","inputs":[{"name":"previousOwner","type":"address","indexed":true,"internalType":"address"},{"name":"newOwner","type":"address","indexed":true,"internalType":"address"}],"anonymous":false},{"type":"error","name":"OwnableInvalidOwner","inputs":[{"name":"owner","type":"address","internalType":"address"}]},{"type":"error","name":"OwnableUnauthorizedAccount","inputs":[{"name":"account","type":"address","internalType":"address"}]}],"bytecode":{"object":"0x6080604052601e6009553480156200001657600080fd5b50604051620029f1380380620029f183398101604081905262000039916200010b565b33806200006057604051631e4fbdf760e01b81526000600482015260240160405180910390fd5b6200006b816200009e565b50600180546001600160a01b039384166001600160a01b0319918216179091556002805492909316911617905562000143565b600080546001600160a01b038381166001600160a01b0319831681178455604051919092169283917f8be0079c531659141344cd1fd0a4f28419497f9722a3daafe3b4186f6b6457e09190a35050565b80516001600160a01b03811681146200010657600080fd5b919050565b600080604083850312156200011f57600080fd5b6200012a83620000ee565b91506200013a60208401620000ee565b90509250929050565b61289e80620001536000396000f3fe6080604052600436106101815760003560e01c80638e161f08116100d1578063bd5703751161008a578063ecd25a9a11610064578063ecd25a9a14610544578063f2fde38b14610574578063fafeabcc14610594578063fb65e22d146105c157600080fd5b8063bd570375146104ee578063db0b569e1461050e578063ec9790821461052e57600080fd5b80638e161f08146103c35780639aef11d0146103f05780639fda5d621461041d578063a00abc911461043d578063b06c1ba31461045d578063b1283e771461049257600080fd5b806353c06c381161013e5780636fec9fb1116101185780636fec9fb1146102fc578063715018a61461032a5780638bf1038c1461033f5780638da5cb5b1461039157600080fd5b806353c06c3814610295578063587f5ed7146102b557806365d6f653146102cb57600080fd5b80630ccf2156146101865780631c009fbd146101af5780633d285566146101d3578063476343ee146102135780634afe62b51461022a5780634e43603a1461023d575b600080fd5b34801561019257600080fd5b5061019c60095481565b6040519081526020015b60405180910390f35b3480156101bb57600080fd5b506101c46105e1565b6040516101a693929190612209565b3480156101df57600080fd5b506102036101ee36600461229b565b60036020526000908152604090205460ff1681565b60405190151581526020016101a6565b34801561021f57600080fd5b50610228610a1b565b005b6102286102383660046122bd565b610add565b34801561024957600080fd5b5061028061025836600461229b565b6001600160a01b03166000908152600560209081526040808320546006909252909120549091565b604080519283526020830191909152016101a6565b3480156102a157600080fd5b506102286102b03660046122df565b610ed2565b3480156102c157600080fd5b5061019c600a5481565b3480156102d757600080fd5b506102eb6102e6366004612306565b610ff7565b6040516101a69594939291906123cd565b34801561030857600080fd5b5061031c61031736600461247c565b61134e565b6040516101a69291906124a8565b34801561033657600080fd5b5061022861160b565b34801561034b57600080fd5b5061028061035a36600461247c565b60008281526007602090815260408083206001600160a01b0385168452600401909152902060028101546003909101549250929050565b34801561039d57600080fd5b506000546001600160a01b03165b6040516001600160a01b0390911681526020016101a6565b3480156103cf57600080fd5b5061019c6103de36600461229b565b60066020526000908152604090205481565b3480156103fc57600080fd5b5061041061040b3660046122df565b61161f565b6040516101a6919061253f565b34801561042957600080fd5b506103ab6104383660046122df565b6117e1565b34801561044957600080fd5b5061019c6104583660046122bd565b61180b565b34801561046957600080fd5b5061047d6104783660046122df565b61182f565b6040516101a699989796959493929190612552565b34801561049e57600080fd5b506104d16104ad3660046122df565b60076020526000908152604090208054600182015460029092015490919060ff1683565b6040805193845260208401929092521515908201526060016101a6565b3480156104fa57600080fd5b5061031c6105093660046122df565b6118f6565b34801561051a57600080fd5b506102286105293660046122df565b611cea565b34801561053a57600080fd5b5061019c60085481565b34801561055057600080fd5b5061019c61055f3660046122df565b60009081526007602052604090206001015490565b34801561058057600080fd5b5061022861058f36600461229b565b6120d1565b3480156105a057600080fd5b5061019c6105af36600461229b565b60056020526000908152604090205481565b3480156105cd57600080fd5b506001546103ab906001600160a01b031681565b600454606090819081906000816001600160401b03811115610605576106056125b9565b60405190808252806020026020018201604052801561062e578160200160208202803683370190505b5090506000826001600160401b0381111561064b5761064b6125b9565b604051908082528060200260200182016040528015610674578160200160208202803683370190505b5090506000836001600160401b03811115610691576106916125b9565b6040519080825280602002602001820160405280156106ba578160200160208202803683370190505b50905060005b848110156107ea57600481815481106106db576106db6125cf565b9060005260206000200160009054906101000a90046001600160a01b031684828151811061070b5761070b6125cf565b60200260200101906001600160a01b031690816001600160a01b0316815250506005600060048381548110610742576107426125cf565b60009182526020808320909101546001600160a01b03168352820192909252604001902054835184908390811061077b5761077b6125cf565b602002602001018181525050600660006004838154811061079e5761079e6125cf565b60009182526020808320909101546001600160a01b0316835282019290925260400190205482518390839081106107d7576107d76125cf565b60209081029190910101526001016106c0565b5060005b6107f96001866125fb565b811015610a0d5760005b8161080f6001886125fb565b61081991906125fb565b811015610a04578361082c82600161260e565b8151811061083c5761083c6125cf565b6020026020010151848281518110610856576108566125cf565b602002602001015110156109fc578461087082600161260e565b81518110610880576108806125cf565b602002602001015185828151811061089a5761089a6125cf565b60200260200101518683815181106108b4576108b46125cf565b60200260200101878460016108c9919061260e565b815181106108d9576108d96125cf565b6001600160a01b03938416602091820292909201015291169052836108ff82600161260e565b8151811061090f5761090f6125cf565b6020026020010151848281518110610929576109296125cf565b6020026020010151858381518110610943576109436125cf565b6020026020010186846001610958919061260e565b81518110610968576109686125cf565b6020908102919091010191909152528261098382600161260e565b81518110610993576109936125cf565b60200260200101518382815181106109ad576109ad6125cf565b60200260200101518483815181106109c7576109c76125cf565b60200260200101858460016109dc919061260e565b815181106109ec576109ec6125cf565b6020908102919091010191909152525b600101610803565b506001016107ee565b509196909550909350915050565b610a2361210f565b600a805460009182905590610a406000546001600160a01b031690565b6001600160a01b03168260405160006040518083038185875af1925050503d8060008114610a8a576040519150601f19603f3d011682016040523d82523d6000602084013e610a8f565b606091505b5050905080610ad95760405162461bcd60e51b815260206004820152601160248201527015da5d1a191c985dd85b0819985a5b1959607a1b60448201526064015b60405180910390fd5b5050565b6000828152600760205260409020600281015460ff1615610b395760405162461bcd60e51b815260206004820152601660248201527513585c9ad95d08185b1c9958591e481cd95d1d1b195960521b6044820152606401610ad0565b6001548154604051631443ad9960e11b81526001600160a01b03909216916328875b3291610b74918690600401918252602082015260400190565b600060405180830381865afa158015610b91573d6000803e3d6000fd5b505050506040513d6000823e601f3d908101601f19168201604052610bb991908101906126bc565b51600003610bfb5760405162461bcd60e51b815260206004820152600f60248201526e496e76616c6964206f7574636f6d6560881b6044820152606401610ad0565b60003411610c575760405162461bcd60e51b8152602060048201526024808201527f42657420616d6f756e74206d7573742062652067726561746572207468616e206044820152637a65726f60e01b6064820152608401610ad0565b33600090815260048201602052604090206002015415610cae5760405162461bcd60e51b815260206004820152601260248201527110995d08185b1c9958591e481c1b1858d95960721b6044820152606401610ad0565b34816001016000828254610cc2919061260e565b9091555050600082815260038201602052604081208054349290610ce790849061260e565b90915550506040805160c081018252848152336020808301828152348486019081526060850188815260006080870181815260a0880182815296825260048a810187528983209851895594516001890180546001600160a01b0319166001600160a01b03909216919091179055925160028801559051600387015590519185019190915591516005938401805460ff1916911515919091179055918401909152205460ff16610dd35733600081815260058301602090815260408220805460ff191660019081179091556006850180549182018155835291200180546001600160a01b03191690911790555b33600090815260078201602052604081208054349290610df490849061260e565b90915550503360009081526005602052604081208054349290610e1890849061260e565b90915550503360009081526003602052604090205460ff16610e9157336000818152600360205260408120805460ff191660019081179091556004805491820181559091527f8a35acfbc15ff81a39ae7d344fd709f28e8600b4aa8c65c6b64bfe7fe36bd19b0180546001600160a01b03191690911790555b60408051838152346020820152339185917f1b8a9031cb9351278d70a994f81536e9e08c91162e64f92b2fe4766fb7a891b4910160405180910390a3505050565b610eda61210f565b600081118015610f605750600160009054906101000a90046001600160a01b03166001600160a01b03166371be2e4a6040518163ffffffff1660e01b8152600401602060405180830381865afa158015610f38573d6000803e3d6000fd5b505050506040513d601f19601f82011682018060405250810190610f5c91906126f0565b8111155b610f9f5760405162461bcd60e51b815260206004820152601060248201526f125b9d985b1a5908195d995b9d08125160821b6044820152606401610ad0565b60088054906000610faf83612709565b9091555050600880546000908152600760205260408082208481559254905184927f5d047b96357082535b3a8bbdba2f7235ade27d87c2ba32c48101c8a34059389191a35050565b606080808080600060015b600854811161104c5760008181526007602052604090206002015488151560ff90911615150361103a578161103681612709565b9250505b8061104481612709565b915050611002565b50806001600160401b03811115611065576110656125b9565b60405190808252806020026020018201604052801561108e578160200160208202803683370190505b509550806001600160401b038111156110a9576110a96125b9565b6040519080825280602002602001820160405280156110dc57816020015b60608152602001906001900390816110c75790505b509450806001600160401b038111156110f7576110f76125b9565b60405190808252806020026020018201604052801561112a57816020015b60608152602001906001900390816111155790505b509350806001600160401b03811115611145576111456125b9565b60405190808252806020026020018201604052801561116e578160200160208202803683370190505b509250806001600160401b03811115611189576111896125b9565b6040519080825280602002602001820160405280156111b2578160200160208202803683370190505b509150600060015b60085481116113425760008181526007602052604090206002015489151560ff909116151503611330576000818152600760205260409081902060015481549251630761c6ad60e51b8152919260609283926001600160a01b03169163ec38d5a09161122d919060040190815260200190565b600060405180830381865afa15801561124a573d6000803e3d6000fd5b505050506040513d6000823e601f3d908101601f191682016040526112729190810190612722565b8f51949650945087938f935089925082109050611291576112916125cf565b602002602001018181525050818a86815181106112b0576112b06125cf565b6020026020010181905250808986815181106112ce576112ce6125cf565b602002602001018190525082600101548886815181106112f0576112f06125cf565b602090810291909101015260068301548751889087908110611314576113146125cf565b60209081029190910101528461132981612709565b9550505050505b8061133a81612709565b9150506111ba565b50505091939590929450565b6000828152600760205260408120606091829190805b60068301548110156113bf57856001600160a01b031683600601828154811061138f5761138f6125cf565b6000918252602090912001546001600160a01b0316036113b757816113b381612709565b9250505b600101611364565b506000816001600160401b038111156113da576113da6125b9565b60405190808252806020026020018201604052801561141357816020015b61140061218c565b8152602001906001900390816113f85790505b5090506000826001600160401b03811115611430576114306125b9565b604051908082528060200260200182016040528015611459578160200160208202803683370190505b50905060006114678961161f565b90506000805b60068701548110156115fa57896001600160a01b0316876006018281548110611498576114986125cf565b6000918252602090912001546001600160a01b0316036115f25760008760040160008960060184815481106114cf576114cf6125cf565b60009182526020808320909101546001600160a01b039081168452838201949094526040928301909120825160c081018452815481526001820154909416918401919091526002810154918301919091526003810154606083015260048101546080830152600581015460ff16151560a0830152875190925087908590811061155a5761155a6125cf565b60209081029190910101526003810154600282015460095460009061271090611583908461282f565b61158d9190612846565b9050600061159b82846125fb565b9050808885815181106115b0576115b06125cf565b60200260200101516115c2919061282f565b8988815181106115d4576115d46125cf565b6020908102919091010152866115e981612709565b97505050505050505b60010161146d565b509299919850909650505050505050565b61161361210f565b61161d600061213c565b565b600081815260076020526040812060068101546060929081906001600160401b0381111561164f5761164f6125b9565b604051908082528060200260200182016040528015611678578160200160208202803683370190505b50905060005b81518110156116d1576000818152600385016020526040902054156116c957808284815181106116b0576116b06125cf565b6020908102919091010152826116c581612709565b9350505b60010161167e565b506000826001600160401b038111156116ec576116ec6125b9565b604051908082528060200260200182016040528015611715578160200160208202803683370190505b50905060005b838110156117d7576000838281518110611737576117376125cf565b6020026020010151905060008660030160008381526020019081526020016000205411156117ad576000818152600387016020526040902054600187015461178090606461282f565b61178a9190612846565b83828151811061179c5761179c6125cf565b6020026020010181815250506117ce565b60008382815181106117c1576117c16125cf565b6020026020010181815250505b5060010161171b565b5095945050505050565b600481815481106117f157600080fd5b6000918252602090912001546001600160a01b0316905081565b60008281526007602090815260408083208484526003019091529020545b92915050565b60008181526007602052604080822060015481549251630761c6ad60e51b815260048101939093528392839283926060928492839283928692916001600160a01b03169063ec38d5a090602401600060405180830381865afa158015611899573d6000803e3d6000fd5b505050506040513d6000823e601f3d908101601f191682016040526118c19190810190612722565b85546001870154600290970154909f50959d5060ff9095169b5099509197509550935086925090509193959799909294969850565b6000818152600760205260408120600681015460609283929190816001600160401b03811115611928576119286125b9565b60405190808252806020026020018201604052801561196157816020015b61194e61218c565b8152602001906001900390816119465790505b5090506000826001600160401b0381111561197e5761197e6125b9565b6040519080825280602002602001820160405280156119a7578160200160208202803683370190505b50905060006119b58861161f565b905060005b84811015611b335760008660060182815481106119d9576119d96125cf565b60009182526020808320909101546001600160a01b039081168084526004808c018452604094859020855160c081018752815481526001820154909416948401949094526002840154948301949094526003830154606083015292820154608082015260059091015460ff16151560a0820152865191925090869084908110611a6457611a646125cf565b60200260200101819052506000858381518110611a8357611a836125cf565b60200260200101516060015190506000868481518110611aa557611aa56125cf565b6020026020010151604001519050600061271060095483611ac6919061282f565b611ad09190612846565b90506000611ade82846125fb565b905080878581518110611af357611af36125cf565b6020026020010151611b05919061282f565b888781518110611b1757611b176125cf565b60209081029190910101525050600190930192506119ba915050565b5060005b611b426001866125fb565b811015611cdc5760005b81611b586001886125fb565b611b6291906125fb565b811015611cd35784611b7582600161260e565b81518110611b8557611b856125cf565b602002602001015160400151858281518110611ba357611ba36125cf565b6020026020010151604001511015611ccb576000858281518110611bc957611bc96125cf565b6020026020010151905085826001611be1919061260e565b81518110611bf157611bf16125cf565b6020026020010151868381518110611c0b57611c0b6125cf565b60209081029190910101528086611c2384600161260e565b81518110611c3357611c336125cf565b60200260200101819052506000858381518110611c5257611c526125cf565b6020026020010151905085836001611c6a919061260e565b81518110611c7a57611c7a6125cf565b6020026020010151868481518110611c9457611c946125cf565b60209081029190910101528086611cac85600161260e565b81518110611cbc57611cbc6125cf565b60200260200101818152505050505b600101611b4c565b50600101611b37565b509197909650945050505050565b6002546001600160a01b031615611d44576002546001600160a01b03163314611d445760405162461bcd60e51b815260206004820152600c60248201526b155b985d5d1a1bdc9a5e995960a21b6044820152606401610ad0565b6000818152600760205260409020600281015460ff1615611da05760405162461bcd60e51b815260206004820152601660248201527513585c9ad95d08185b1c9958591e481cd95d1d1b195960521b6044820152606401610ad0565b6001548154604051630761c6ad60e51b815260009283926001600160a01b039091169163ec38d5a091611dd99160040190815260200190565b600060405180830381865afa158015611df6573d6000803e3d6000fd5b505050506040513d6000823e601f3d908101601f19168201604052611e1e9190810190612722565b5093509350505081611e6a5760405162461bcd60e51b8152602060048201526015602482015274115d995b9d081b9bdd081cd95d1d1b1959081e595d605a1b6044820152606401610ad0565b600081815260038401602052604090205480156120905760006127106009548660010154611e98919061282f565b611ea29190612846565b90506000818660010154611eb691906125fb565b60028701805460ff19166001179055600a80549192508391600090611edc90849061260e565b90915550600090505b600687015481101561208c576000876006018281548110611f0857611f086125cf565b60009182526020808320909101546001600160a01b031680835260048b0190915260409091206003810154919250908790036120705785848260020154611f4f919061282f565b611f599190612846565b600482018190556001600160a01b038316600090815260088b01602052604081208054909190611f8a90849061260e565b9091555050600481015460018201546001600160a01b031660009081526006602052604081208054909190611fc090849061260e565b9091555050600181015460048201546040516000926001600160a01b031691908381818185875af1925050503d8060008114612018576040519150601f19603f3d011682016040523d82523d6000602084013e61201d565b606091505b505090508061206e5760405162461bcd60e51b815260206004820152601960248201527f5472616e7366657220746f2077696e6e6572206661696c6564000000000000006044820152606401610ad0565b505b600501805460ff19166001908117909155919091019050611ee5565b5050505b847fba34900c7cce6a82ec9a8d8e4a39e6132bfafff823a282529d047f44628caeba836040516120c291815260200190565b60405180910390a25050505050565b6120d961210f565b6001600160a01b03811661210357604051631e4fbdf760e01b815260006004820152602401610ad0565b61210c8161213c565b50565b6000546001600160a01b0316331461161d5760405163118cdaa760e01b8152336004820152602401610ad0565b600080546001600160a01b038381166001600160a01b0319831681178455604051919092169283917f8be0079c531659141344cd1fd0a4f28419497f9722a3daafe3b4186f6b6457e09190a35050565b6040518060c001604052806000815260200160006001600160a01b031681526020016000815260200160008152602001600081526020016000151581525090565b60008151808452602080850194506020840160005b838110156121fe578151875295820195908201906001016121e2565b509495945050505050565b606080825284519082018190526000906020906080840190828801845b8281101561224b5781516001600160a01b031684529284019290840190600101612226565b505050838103602085015261226081876121cd565b915050828103604084015261227581856121cd565b9695505050505050565b80356001600160a01b038116811461229657600080fd5b919050565b6000602082840312156122ad57600080fd5b6122b68261227f565b9392505050565b600080604083850312156122d057600080fd5b50508035926020909101359150565b6000602082840312156122f157600080fd5b5035919050565b801515811461210c57600080fd5b60006020828403121561231857600080fd5b81356122b6816122f8565b60005b8381101561233e578181015183820152602001612326565b50506000910152565b6000815180845261235f816020860160208601612323565b601f01601f19169290920160200192915050565b60008282518085526020808601955060208260051b8401016020860160005b848110156123c057601f198684030189526123ae838351612347565b98840198925090830190600101612392565b5090979650505050505050565b60a0815260006123e060a08301886121cd565b6020838203818501526123f38289612373565b915083820360408501528187518084528284019150828160051b850101838a0160005b8381101561244457601f19878403018552612432838351612373565b94860194925090850190600101612416565b50508681036060880152612458818a6121cd565b945050505050828103608084015261247081856121cd565b98975050505050505050565b6000806040838503121561248f57600080fd5b8235915061249f6020840161227f565b90509250929050565b6040808252835182820181905260009190606090818501906020808901865b8381101561251e57815180518652838101516001600160a01b031684870152878101518887015286810151878701526080808201519087015260a09081015115159086015260c090940193908201906001016124c7565b50505050848103602086015261253481876121cd565b979650505050505050565b6020815260006122b660208301846121cd565b60006101208b83528a6020840152891515604084015288606084015280608084015261258081840189612347565b90508660a084015285151560c08401528460e08401528281036101008401526125a98185612373565b9c9b505050505050505050505050565b634e487b7160e01b600052604160045260246000fd5b634e487b7160e01b600052603260045260246000fd5b634e487b7160e01b600052601160045260246000fd5b81810381811115611829576118296125e5565b80820180821115611829576118296125e5565b604051601f8201601f191681016001600160401b0381118282101715612649576126496125b9565b604052919050565b600082601f83011261266257600080fd5b81516001600160401b0381111561267b5761267b6125b9565b61268e601f8201601f1916602001612621565b8181528460208386010111156126a357600080fd5b6126b4826020830160208701612323565b949350505050565b6000602082840312156126ce57600080fd5b81516001600160401b038111156126e457600080fd5b6126b484828501612651565b60006020828403121561270257600080fd5b5051919050565b60006001820161271b5761271b6125e5565b5060010190565b600080600080600060a0868803121561273a57600080fd5b85516001600160401b038082111561275157600080fd5b61275d89838a01612651565b9650602091508188015195506040880151612777816122f8565b606089015160808a015191965094508181111561279357600080fd5b8801601f81018a136127a457600080fd5b8051828111156127b6576127b66125b9565b8060051b6127c5858201612621565b918252828101850191858101908d8411156127df57600080fd5b86850192505b8383101561281b578251868111156127fd5760008081fd5b61280b8f8983890101612651565b83525091860191908601906127e5565b809750505050505050509295509295909350565b8082028115828204841417611829576118296125e5565b60008261286357634e487b7160e01b600052601260045260246000fd5b50049056fea2646970667358221220f9178327472fa3e503cb6b8fa3dbfbe27404ddc77aa30c1fa895c8c6bf691cc564736f6c63430008170033","linkReferences":{}},"methodIdentifiers":{"accumulatedFees()":"587f5ed7","betters(uint256)":"9fda5d62","calculateMarketOdds(uint256)":"9aef11d0","createMarket(uint256)":"53c06c38","eventOracle()":"fb65e22d","getBetSlip(uint256,address)":"8bf1038c","getMarketDetails(uint256)":"b06c1ba3","getMarketOutcomeTotals(uint256,uint256)":"a00abc91","getMarketTotalBets(uint256)":"ecd25a9a","getMarkets(bool)":"65d6f653","getTopBets(uint256)":"bd570375","getUserBetSlips(uint256,address)":"6fec9fb1","getUserRankings()":"1c009fbd","getUserStats(address)":"4e43603a","marketCount()":"ec979082","marketFee()":"0ccf2156","markets(uint256)":"b1283e77","owner()":"8da5cb5b","placeBet(uint256,uint256)":"4afe62b5","renounceOwnership()":"715018a6","settleMarket(uint256)":"db0b569e","totalUserBets(address)":"fafeabcc","totalUserPrizes(address)":"8e161f08","transferOwnership(address)":"f2fde38b","uniqueBetters(address)":"3d285566","withdrawFees()":"476343ee"},"id":26}